:0300000001810873
:0300010000ED828D
:0300020000C050EB
:0300030000E00416
:0300040000B00544
:0300050001A2064F
:03000600959A01C7
:0300070000E00F07
:0300080000ED8A7E
:0300090000ED8C7B
:03000A0000A0084B
:03000B0000800171
:03000C00062009C2
:03000D00062009C1
:03000E00070A08D6
:03000F0003820168
:03001000001001DC
:0300110000ED837C
:0300120000ED8777
:0300130000ED9964
:0300140000ED9C60
:0300150031821D18
:0300160031821F15
:0300170031822112
:030018003182230F
:0300190000E01AEA
:03001A0000A01B28
:03001B00070A01D0
:03001C0000D1818F
:03001D0021881E19
:03001E0001980145
:03001F002988200D
:0300200001980143
:0300210011882221
:0300220001980141
:0300230019882415
:030024000198013F
:0300250001811046
:03002600000002D5
:03002700000003D3
:03002800000004D1
:03002900000005CF
:03002A00000006CD
:03002B00000007CB
:03002C00000008C9
:03002D00000009C7
:03002E0000000AC5
:03002F0000000BC3
:0300300000000CC1
:0300310000000DBF
:0300320000000EBD
:0300330000000FBB
:03003400000010B9
:03003500000011B7
:03003600000012B5
:03003700000013B3
:03003800000014B1
:03003900000015AF
:03003A00000016AD
:03003B00000017AB
:03003C00000018A9
:03003D00000019A7
:03003E0000001AA5
:03003F0000001CA2
:00000001FF
