:02000000000EF0
:020001000007F6
:02000200E00B11
:020003000007F4
:02000400E00B0F
:020005000007F2
:02000600E00B0D
:020007000007F0
:02000800E00B0B
:020009000007EE
:02000A00E00B09
:02000B000007EC
:02000C00E00B07
:02000D000007EA
:02000E00E00B05
:02000F000007E8
:02001000E00B03
:020011000007E6
:02001200E00B01
:020013000007E4
:02001400E00BFF
:020015000007E2
:02001600E00BFD
:020017000007E0
:02001800E00BFB
:020019000007DE
:02001A00E00BF9
:02001B000007DC
:02001C00E00BF7
:02001D000007DA
:02001E00E00BF5
:02001F000007D8
:02002000E00BF3
:020021000007D6
:02002200E00BF1
:020023000007D4
:02002400E00BEF
:020025000007D2
:02002600E00BED
:020027000007D0
:02002800E00BEB
:020029000007CE
:02002A00E00BE9
:02002B000007CC
:02002C00E00BE7
:02002D000007CA
:02002E00E00BE5
:02002F000007C8
:02003000E00BE3
:020031000007C6
:02003200E00BE1
:020033000007C4
:02003400E00BDF
:020035000007C2
:02003600E00BDD
:020037000007C0
:02003800000CBA
:02003900000DB8
:02003A00000FB5
:02003B000000C3
:02003C000000C2
:02003D000000C1
:02003E000000C0
:02003F000000BF
:00000001FF
